{
  "contractName": "Router",
  "abi": [
    {
      "inputs": [
        {
          "internalType": "uint256",
          "name": "amountIn",
          "type": "uint256"
        },
        {
          "internalType": "uint256",
          "name": "amountOutMin",
          "type": "uint256"
        },
        {
          "internalType": "address[]",
          "name": "path",
          "type": "address[]"
        },
        {
          "internalType": "address",
          "name": "to",
          "type": "address"
        },
        {
          "internalType": "uint256",
          "name": "deadline",
          "type": "uint256"
        }
      ],
      "name": "swapExactTokensForTokens",
      "outputs": [
        {
          "internalType": "uint256[]",
          "name": "amounts",
          "type": "uint256[]"
        }
      ],
      "stateMutability": "nonpayable",
      "type": "function"
    },
    {
      "inputs": [
        {
          "internalType": "uint256",
          "name": "amountIn",
          "type": "uint256"
        },
        {
          "internalType": "address[]",
          "name": "path",
          "type": "address[]"
        }
      ],
      "name": "getAmountsOut",
      "outputs": [
        {
          "internalType": "uint256[]",
          "name": "amounts",
          "type": "uint256[]"
        }
      ],
      "stateMutability": "view",
      "type": "function"
    }
  ],
  "bytecode": "0x608060405234801561001057600080fd5b506104ab806100206000396000f3fe608060405234801561001057600080fd5b50600436106100365760003560e01c806338ed17391461003b578063d06ca61f1461006b575b600080fd5b6100556004803603810190610050919061020d565b61009b565b6040516100629190610324565b60405180910390f35b610085600480360381019061008091906101b9565b6100a7565b6040516100929190610324565b60405180910390f35b60609695505050505050565b606092915050565b60006100c26100bd84610377565b610346565b905080838252602082019050828560208602820111156100e157600080fd5b60005b8581101561011157816100f7888261011b565b8452602084019350602083019250506001810190506100e4565b5050509392505050565b60008135905061012a81610447565b92915050565b60008083601f84011261014257600080fd5b8235905067ffffffffffffffff81111561015b57600080fd5b60208301915083602082028301111561017357600080fd5b9250929050565b600082601f83011261018b57600080fd5b813561019b8482602086016100af565b91505092915050565b6000813590506101b38161045e565b92915050565b600080604083850312156101cc57600080fd5b60006101da858286016101a4565b925050602083013567ffffffffffffffff8111156101f757600080fd5b6102038582860161017a565b9150509250929050565b60008060008060008060a0878903121561022657600080fd5b600061023489828a016101a4565b965050602061024589828a016101a4565b955050604087013567ffffffffffffffff81111561026257600080fd5b61026e89828a01610130565b9450945050606061028189828a0161011b565b925050608061029289828a016101a4565b9150509295509295509295565b60006102ab8383610315565b60208301905092915050565b60006102c2826103b3565b6102cc81856103cb565b93506102d7836103a3565b8060005b838110156103085781516102ef888261029f565b97506102fa836103be565b9250506001810190506102db565b5085935050505092915050565b61031e8161040e565b82525050565b6000602082019050818103600083015261033e81846102b7565b905092915050565b6000604051905081810181811067ffffffffffffffff8211171561036d5761036c610418565b5b8060405250919050565b600067ffffffffffffffff82111561039257610391610418565b5b602082029050602081019050919050565b6000819050602082019050919050565b600081519050919050565b6000602082019050919050565b600082825260208201905092915050565b60006103e7826103ee565b9050919050565b600073ffffffffffffffffffffffffffffffffffffffff82169050919050565b6000819050919050565b7f4e487b7100000000000000000000000000000000000000000000000000000000600052604160045260246000fd5b610450816103dc565b811461045b57600080fd5b50565b6104678161040e565b811461047257600080fd5b5056fea2646970667358221220d90e19bec29ec6a71fcb85be1e7999851e72339ac0e0e6bbd725f55be40a2a7264736f6c63430008000033",
  "immutableReferences": {},
  "source": "pragma solidity ^0.8.0;\r\n\r\ncontract Router {\r\n  function swapExactTokensForTokens(\r\n    uint amountIn,\r\n    uint amountOutMin,\r\n    address[] calldata path,\r\n    address to,\r\n    uint deadline\r\n  ) external returns (uint[] memory amounts) {} \r\n  \r\n  function getAmountsOut(\r\n    uint amountIn, \r\n    address[] memory path\r\n  )\r\n    public\r\n    view\r\n    returns (uint[] memory amounts) {}\r\n}\r\n",
  "sourcePath": "C:/Users/Gamer I5/botUniswap/contracts/Router.sol",
  "compiler": {
    "name": "solc",
    "version": "0.8.0+commit.c7dfd78e.Emscripten.clang"
  },
  "schemaVersion": "3.3.2",
  "updatedAt": "2021-06-15T06:07:51.239Z",
  "devdoc": {
    "kind": "dev",
    "methods": {},
    "version": 1
  },
  "userdoc": {
    "kind": "user",
    "methods": {},
    "version": 1
  }
}